{"abi":[{"type":"constructor","inputs":[{"name":"priceFeed","type":"address","internalType":"address"}],"stateMutability":"nonpayable"},{"type":"fallback","stateMutability":"payable"},{"type":"receive","stateMutability":"payable"},{"type":"function","name":"MINIMUM_USD","inputs":[],"outputs":[{"name":"","type":"uint256","internalType":"uint256"}],"stateMutability":"view"},{"type":"function","name":"addressToAmountFunded","inputs":[{"name":"","type":"address","internalType":"address"}],"outputs":[{"name":"","type":"uint256","internalType":"uint256"}],"stateMutability":"view"},{"type":"function","name":"fund","inputs":[],"outputs":[],"stateMutability":"payable"},{"type":"function","name":"funders","inputs":[{"name":"","type":"uint256","internalType":"uint256"}],"outputs":[{"name":"","type":"address","internalType":"address"}],"stateMutability":"view"},{"type":"function","name":"getVersion","inputs":[],"outputs":[{"name":"","type":"uint256","internalType":"uint256"}],"stateMutability":"view"},{"type":"function","name":"i_owner","inputs":[],"outputs":[{"name":"","type":"address","internalType":"address"}],"stateMutability":"view"},{"type":"function","name":"withdraw","inputs":[],"outputs":[],"stateMutability":"nonpayable"},{"type":"error","name":"NotOwner","inputs":[]}],"bytecode":{"object":"0x6080604052348015600e575f5ffd5b50604051610742380380610742833981016040819052602b91605d565b60028054336001600160a01b031991821617909155600380549091166001600160a01b03929092169190911790556088565b5f60208284031215606c575f5ffd5b81516001600160a01b03811681146081575f5ffd5b9392505050565b6106ad806100955f395ff3fe608060405260043610610073575f3560e01c80636b69a5921161004d5780636b69a592146100f0578063b60d428814610082578063dba6335f1461010b578063dc0d3dff1461014257610082565b80630d8e6e2c1461008a5780633ccfd60b146100b15780633e47d6f3146100c557610082565b3661008257610080610161565b005b610080610161565b348015610095575f5ffd5b5061009e61023a565b6040519081526020015b60405180910390f35b3480156100bc575f5ffd5b506100806102aa565b3480156100d0575f5ffd5b5061009e6100df366004610517565b5f6020819052908152604090205481565b3480156100fb575f5ffd5b5061009e674563918244f4000081565b348015610116575f5ffd5b5060025461012a906001600160a01b031681565b6040516001600160a01b0390911681526020016100a8565b34801561014d575f5ffd5b5061012a61015c36600461053d565b6103c2565b600354674563918244f40000906101829034906001600160a01b03166103ea565b10156101d55760405162461bcd60e51b815260206004820152601b60248201527f596f75206e65656420746f207370656e64206d6f72652045544821000000000060448201526064015b60405180910390fd5b335f90815260208190526040812080543492906101f3908490610568565b90915550506001805480820182555f919091527fb10e2d527612073b26eecdfd717e6a320cf44b4afac2b0732d9fcbe2b7fa0cf60180546001600160a01b03191633179055565b6003546040805163054fd4d560e41b815290515f926001600160a01b0316916354fd4d509160048083019260209291908290030181865afa158015610281573d5f5f3e3d5ffd5b505050506040513d601f19601f820116820180604052508101906102a5919061057b565b905090565b6002546001600160a01b031633146102d5576040516330cd747160e01b815260040160405180910390fd5b5f5b60015481101561031e575f600182815481106102f5576102f5610592565b5f9182526020808320909101546001600160a01b031682528190526040812055506001016102d7565b50604080515f815260208101918290525161033b916001916104a0565b506040515f90339047908381818185875af1925050503d805f811461037b576040519150601f19603f3d011682016040523d82523d5f602084013e610380565b606091505b50509050806103bf5760405162461bcd60e51b815260206004820152600b60248201526a10d85b1b0819985a5b195960aa1b60448201526064016101cc565b50565b600181815481106103d1575f80fd5b5f918252602090912001546001600160a01b0316905081565b5f5f6103f583610420565b90505f670de0b6b3a764000061040b86846105a6565b61041591906105bd565b925050505b92915050565b5f5f826001600160a01b031663feaf968c6040518163ffffffff1660e01b815260040160a060405180830381865afa15801561045e573d5f5f3e3d5ffd5b505050506040513d601f19601f8201168201806040525081019061048291906105fa565b505050915050806402540be4006104999190610648565b9392505050565b828054828255905f5260205f209081019282156104f3579160200282015b828111156104f357825182546001600160a01b0319166001600160a01b039091161782556020909201916001909101906104be565b506104ff929150610503565b5090565b5b808211156104ff575f8155600101610504565b5f60208284031215610527575f5ffd5b81356001600160a01b0381168114610499575f5ffd5b5f6020828403121561054d575f5ffd5b5035919050565b634e487b7160e01b5f52601160045260245ffd5b8082018082111561041a5761041a610554565b5f6020828403121561058b575f5ffd5b5051919050565b634e487b7160e01b5f52603260045260245ffd5b808202811582820484141761041a5761041a610554565b5f826105d757634e487b7160e01b5f52601260045260245ffd5b500490565b805169ffffffffffffffffffff811681146105f5575f5ffd5b919050565b5f5f5f5f5f60a0868803121561060e575f5ffd5b610617866105dc565b6020870151604088015160608901519297509095509350915061063c608087016105dc565b90509295509295909350565b8082025f8212600160ff1b8414161561066357610663610554565b818105831482151761041a5761041a61055456fea264697066735822122070a60d210b4c15cbb38f5b01cc8dc140a22c6ee9e4122458270939e8c6fda6f764736f6c634300081c0033","linkReferences":{}},"methodIdentifiers":{"MINIMUM_USD()":"6b69a592","addressToAmountFunded(address)":"3e47d6f3","fund()":"b60d4288","funders(uint256)":"dc0d3dff","getVersion()":"0d8e6e2c","i_owner()":"dba6335f","withdraw()":"3ccfd60b"},"id":26}